:020000021000EC
:1080000000400020B5120200F1120200F31202003B
:108010000000000000000000000000000000000060
:10802000000000000000000000000000F512020047
:108030000000000000000000F7120200F912020028
:10804000FB12020049BF010071190200FB1202007D
:10805000FB120200000000002D130200FB120200C0
:10806000FB120200491B0200F9170200FB1202007A
:10807000FB120200FB120200FB120200FB120200C4
:10808000FB120200FB120200FB120200FB120200B4
:10809000FB1202000DF601008DF70100FB12020039
:1080A000FB120200FB1202000000000000000000B2
:1080B00000000000000000000000000000000000C0
:1080C0000448054B10B5834203D0044B002B00D06D
:1080D000984710BDC0200020C020002000000000F4
:1080E00006480749091A8B10C90FC91810B549105D
:1080F00003D0044B002B00D0984710BDC0200020B7
:10810000C02000200000000010B5074C2378002B91
:1081100009D1FFF7D5FF054B002B02D0044800E042
:1081200000BF0123237010BDD820002000000000F4
:10813000B0930200054B10B5002B03D0044905484D
:1081400000E000BFFFF7CCFF10BDC04600000000FC
:10815000DC200020B0930200402292029A1A92463C
:108160007047C046154B002B00D1114B9D46FFF7C1
:10817000F3FF00218B460F461148124A121A0BF0EA
:1081800059F90C4B002B00D098470B4B002B00D01B
:1081900098470020002104000D000B480AF0DAFF88
:1081A0000BF020F8200029000FF0D2FB0AF0F0FFBE
:1081B0000000080000000000000000000040002057
:1081C000C02000208C2A0020BD310200F7B50A0033
:1081D000030010320C781C704C785C708C789C70AA
:1081E000CC780431DC7004339142F3D1124B042279
:1081F0009C46124E0327037B457B847BC17B3A421E
:1082000009D16746755D0195355D745CF15C930835
:10821000FB5C019F7B40077801327B40037443780D
:108220005D40837845745C40C37884745940C17460
:1082300004302C2ADED1F7BDEC8A0200F78B020055
:10824000F0B50A0004000F0089B0010000200CF016
:10825000B1F80126231D01932500230019001A00FF
:108260001031029111788C4660463749095C1170D3
:10827000029904329142F5D1019A01339A42EDD12B
:10828000627963786270627A6271627B6373627230
:10829000A27AA378A270A27BA372A379A271E27BD7
:1082A000A373E378E270E27AE273E279E371E27257
:1082B0000A2E41D02300103307932B7802930298A3
:1082C0006B7858400393AB780493EB780593059A49
:1082D000049B53400693434001930CF085F8029BA6
:1082E0005840019B58402870049B039858400CF05C
:1082F0007BF8039B5840019B5840687006980CF02F
:1083000073F8049B5840019B5840A870059B029845
:1083100058400CF069F8059B5840019B5840079B5A
:10832000E8700435AB42C8D130003A002100013674
:108330000CF040F8F6B28DE73A00210030000CF066
:1083400039F809B0F0BDC046F78B0200F0B591B026
:108350000A000E91040001000A200CF02BF80923FA
:10836000627A0093637B627362792600627262783C
:1083700063706271A27AA378A270A27BA372A379C0
:10838000A271E279A373E378E270E27A534DE2716D
:10839000E27BE3732300E272201D19001A00103102
:1083A0001778EF5D177004329142F9D1013398428A
:1083B000F3D121000E9A00980BF0FCFF009B002BDC
:1083C00000D188E0230010330F933378F7780193BE
:1083D000737801980293B37803930CF005F8079033
:1083E0000CF002F808900BF0FFFF049002980BF0DD
:1083F000FBFF09900BF0F8FF0A900BF0F5FF0590DA
:1084000003980BF0F1FF0B900BF0EEFF05000BF063
:10841000EBFF069038000BF0E7FF0C900BF0E4FF49
:108420000D900BF0E1FF0899079B02004B40049967
:108430004B4009994B4005994B4006996B404B4086
:10844000029943404B4003994B407B400499337061
:10845000099B4B400A994B4005994B400B994B4067
:1084600006994B400D994B40019943404B4003996D
:1084700008984B407B407370049B5840059B5840C4
:108480000B9B5840069B45405D400C9B07985D4008
:10849000019B55405D40029B5D40049B7D405840E0
:1084A0000A9B0D9F5840059BB5705840069B58404D
:1084B0000C9B58404740019B7A405A40029B5A40CF
:1084C0004A400F9BF2700436B34200D07DE7009B18
:1084D000013BDBB244E711B0F0BDC046F78A0200B1
:1084E00010B50400034B036040300CF080FA20000C
:1084F00010BDC046F87F020070B50C000021B8B076
:1085000005001C2201A800910AF094FF21680223B3
:10851000CC5E202C00DD20242200684604310AF0C5
:10852000E1FE20262000321B310068440AF082FF61
:1085300008A809490BF060FF694608A80BF060FF26
:1085400004A908A80BF05CFF32006946280001F07E
:10855000B5FF280038B070BD8420002030B50D680C
:108560000021B9B01C22040001A800910AF062FFAA
:108570006B881A1C1BB2202B00DD202212B2291D91
:1085800068460AF0AFFE0F4908A80BF035FF6946B0
:1085900008A80BF03CFF04A908A80BF038FF202224
:1085A00069461300013A895C202901D01A0001E0D4
:1085B000002AF5D16946200012B201F07FFF2000A9
:1085C00039B030BD8420002010B588B000900191F2
:1085D00006A816490393029203F0F8FD06A907A81E
:1085E00001F03CFF07A905A8FFF7B8FF07A80CF0AA
:1085F000FEF906A80CF07BFB059B0D4C5B88042B59
:1086000008D1200005A90CF04FFA05A80CF0EFF9ED
:1086100008B010BD074907A801F010FF200007A906
:108620000CF042FA07A80CF0E2F9EEE788240020EB
:108630001C210020F78C020070B5134D280000F0BB
:10864000BDFF124C2800220011490FF020FB002230
:108650001E2110480DF089F80F4D022303226421DA
:10866000280003F035FB220028000C490FF00FFB17
:108670000B4D0C49280001F0E1FE280022000A49B8
:108680000FF005FB70BDC046202100200020002017
:10869000AD86010004210020F42000201D440200CA
:1086A0001C210020F78C0200EF490200CB23144A62
:1086B0009B0010B5C2501C330400C0180CF097F991
:1086C000D1239B00E0180CF092F920009130FF308C
:1086D00002F0E4FA20006930FF3002F0DFFA2000F7
:1086E000F03002F04DFE2000D03003F0CDF9200034
:1086F000643008F03DFD201DFFF7F2FE200010BDA4
:1087000084840200F0B5EF4CEF4DA544280001F041
:108710000BF8EE4C200003F05DFC1021200003F06C
:1087200045FC30200FF0BEFA10230400092100930D
:108730000122E74B0CF0F5F82100E64803F038F988
:10874000002805D020000CF006F920000FF0A6FA52
:10875000032300240127E04E039302332900320053
:108760000293019300930594E733049728A800F03F
:10877000DBFB7A2329003200009336A8D74B00F0A8
:10878000C1FE52232900320002970194009424A8CC
:1087900000F0EEF91A236B441C8007AB1C801E23EB
:1087A00064256B44089409941C800A941A266E442C
:1087B000330009AA08A928A800F03AFC1E220AAB37
:1087C0006A4407A924A800F0C3FA099928A80BF065
:1087D0006DFE0899040028A800F076FC290009F035
:1087E000C7FA3188070028A800F0C0FC290006005D
:1087F000200009F047FB010020A80CF014F9B8494B
:1088000021A801F01BFE21AA20A922A80CF05BF9E7
:10881000002C65DD2900200009F01AFC23A80CF0CB
:1088200002F923AA22A90BA80CF04DF923A80CF0F9
:10883000DEF822A80CF0DBF821A80CF0D8F820A86C
:108840000CF0D5F82900300009F01CFB010020A82D
:108850000CF0E9F8A24921A801F0F0FD21AA20A915
:1088600022A80CF030F92900300009F0F1FB23A810
:108870000CF0D9F823AA22A90CA80CF024F923A8FB
:108880000CF0B5F822A80CF0B2F821A80CF0AFF863
:1088900020A80CF0ACF839000DA80CF0C4F80A9927
:1088A0000EA80CF0C0F836A800F0F4FD36A80BF0C6
:1088B00083FE00248B4821B20CF01BF9E6B250284D
:1088C00000D132E10FD8482800D123E14C2800D153
:1088D00036E100223100844B36A800F03BFE29E04F
:1088E0002900604298E75428F3D1804920A801F07C
:1088F000A5FD20A90BAA21A80CF0E5F87C4922A827
:1089000001F09CFD22AA21A923A80CF0DCF8239BEE
:1089100000223100043336A800F01CFE23A80CF01E
:1089200066F822A80CF063F821A80CF060F820A8E3
:108930000CF05DF80134042CBCD16E4910A801F094
:108940007DFD0BAA10A911A80CF0BDF86A4C12A865
:10895000210001F073FD12AA11A913A80CF0B3F8BD
:10896000664914A801F06AFD14AA13A915A80CF011
:10897000AAF80CAA15A916A80CF0A5F8210017A8AA
:1089800001F05CFD17AA16A918A80CF09CF85C4928
:1089900019A801F053FD19AA18A91AA80CF093F808
:1089A0000DAA1AA91BA80CF08EF821001CA801F032
:1089B00045FD1CAA1BA91DA80CF085F851491EA84D
:1089C00001F03CFD1EAA1DA91FA80CF07CF80EAA00
:1089D0001FA920A80CF077F84B4921A801F02EFD23
:1089E00021AA20A922A80CF06EF8484B23A81968E8
:1089F0000CF019F823AA22A90FA80CF064F823A8F8
:108A00000BF0F5FF22A80BF0F2FF21A80BF0EFFF0F
:108A100020A80BF0ECFF1FA80BF0E9FF1EA80BF03D
:108A2000E6FF1DA80BF0E3FF1CA80BF0E0FF1BA85E
:108A30000BF0DDFF1AA80BF0DAFF19A80BF0D7FF37
:108A400018A80BF0D4FF17A80BF0D1FF16A80BF055
:108A5000CEFF15A80BF0CBFF14A80BF0C8FF13A88E
:108A60000BF0C5FF12A80BF0C2FF11A80BF0BFFF5F
:108A700010A80BF0BCFF0FA922A80CF00DF822A93A
:108A800023A8FFF739FD23A921480DF06CF923A88D
:108A90000BF0ADFF22A80BF0AAFFFA20800001F036
:108AA000B5FA0FA80BF0A3FF0EA80BF0A0FF0DA8BE
:108AB0000BF09DFF0CA80BF09AFF0BA80BF097FF93
:108AC00074E6C0460CFBFFFF20210020702400202C
:108AD000C9850100F021002004210020F42000209D
:108AE000FC8C02001C210020298D0200FE8C02005B
:108AF000058D0200328D0200358D0200378D020097
:108B00003A8D02003D8D0200408D020004200020BD
:108B100088240020104920A801F090FC20A90CAA6C
:108B200021A80BF0D0FF0D49E9E60D4920A801F07E
:108B300085FC20A90DAA21A80BF0C5FF0949DEE696
:108B4000094920A801F07AFC20A90EAA21A80BF05F
:108B5000BAFF0649D3E6C046088D02000E8D02001A
:108B6000118D0200188D02001D8D0200248D02005F
:108B70007FB504002372002362606A4608A8067865
:108B80000AAD09A800782D78A07223732843813399
:108B900013812160507266722000E5720BF04EFC6A
:108BA00001280DD025681649F03503A801F046FCD0
:108BB0007822280003A902F0D1FD03A80BF017FFCB
:108BC0000025012001F022FA0223217A6068009535
:108BD00002AA02F06DFEA8420ED02573256809494D
:108BE000F03503A801F02AFC7822280003A902F03E
:108BF000B5FD03A80BF0FBFE200004B070BDC0461D
:108C0000458D0200588D020070B5C37A0600002B16
:108C100028D0013B581E83415842424B1840C02384
:108C20005B01C018B37A002B00D10001002341433F
:108C300050438C0A850A9C4203D0210009F098F821
:108C40000300727A01335B08022A0ED9032A24D06A
:108C50000020010080234C4368439B01E418201A44
:108C6000800B70BDE8200002DCE7402B2DD9802B63
:108C700030D9C02B32D980225200934231D93832B8
:108C8000934231D96232934233D90020264A0100FF
:108C90009342DFD812301831DCE7432B2CD9852BD7
:108CA0002ED9C82B2FD98522520093422ED9443277
:108CB00093422ED34C3293422FD900201A4A0100FE
:108CC0009342C7D82B303731C4E7DF20F921400069
:108CD0004900BFE7852115488900BBE714481549BD
:108CE000B8E79C211448F7E7FE2070214000FF31CF
:108CF000B0E7FB20D221ADE7AE208121FF30EBE7CA
:108D00008A210E48E8E70E480E49A3E70E480F49AE
:108D1000A0E7DE207821FF30E9E728200221FF309C
:108D2000E5E7C04600ECFFFF9A020000D102000018
:108D30007B0300003F020000FE030000C1020000B0
:108D40006303000053020000DF0300008202000002
:108D5000F0B51E00174B87B01B78039204AA13705E
:108D60000123040000270291017A0093406802F079
:108D70009FFD0423217A6068009705AA02F088FD10
:108D80000500B84203D02773280007B0F0BD02AB3E
:108D90009989DA89029B002B00D01980039B002B54
:108DA00000D01A80002EEFD02000FFF72DFF30609A
:108DB000EAE7C0466C8D02007FB5134B03AA1B780F
:108DC000002613706B46DE73437A0400012B15D026
:108DD0000125017A00952B00406802F069FD0F2201
:108DE0002B00217A606800966A4402F051FDB0427F
:108DF00007D16B46DB7B602B03D06072607A04B0D6
:108E000070BD6572FAE7C0466E8D0200F0B50400D1
:108E10000126444B89B01B7802AA0120137301F08C
:108E2000F5F8217A0096330005AA0027606802F061
:108E30003FFD2200217A009706236068103202F07D
:108E400027FD0500B84203D06772280009B0F0BDC5
:108E5000300001F0DBF88E2302AA1373217A00960A
:108E6000330005AA606802F023FD2200217A0095F4
:108E7000122360681632029502F00AFD051EE3D146
:108E8000300001F0C3F8A12302AA1373217A0096DF
:108E9000330005AA606802F00BFD06AF217A009549
:108EA00033003A006068039502F0F2FC029B051E55
:108EB00018D1300001F0AAF8E12302AA1373217A35
:108EC0000096330005AA606802F0F2FC1122217AB4
:108ED00002A8009512180723606802F0D9FC051E4D
:108EE00002D0039B6372B0E723003A7828331A70EC
:108EF00002AB5A7C9B7C1B02134363852300FA78E8
:108F00002C331A700F227B7939791A4009010A43F0
:108F1000E285BA791B09120113432386FB793234A7
:108F2000237092E7708D0200F0B59C4604000D009E
:108F3000256065461600257200256660F22689B018
:108F400012A8007865720390039D0EABA57306AD61
:108F50002E7002361978AE7001362E71EE3EA17277
:108F6000314069701C210FAB1F7810AB1B78E77282
:108F700023739B000B407F011F43032311AA127828
:108F800013A8007862731A40039BE07380000840C6
:108F90005B0118433A436871EA702000FFF70CFF49
:108FA00001280FD0002326681E496372F03605A8F9
:108FB00001F044FA7822300005A902F0CFFB05A8A1
:108FC0000BF015FD002606232A00217A6068009622
:108FD00002F06EFCB0420ED0256813496672F0357F
:108FE00005A801F02BFA7822280005A902F0B6FBAB
:108FF00005A80BF0FCFC2000FFF708FF00280DD0AF
:1090000025680A49F03505A801F018FA78222800E9
:1090100005A902F0A3FB05A80BF0E9FC200009B0AC
:10902000F0BDC0464E8D0200618D0200728D0200BF
:10903000F0B589B00393234B05AD1B7804002B706A
:10904000437A0F001600012B05D0FFF7B5FE01286B
:1090500035D100F0DBFF01232A00217A00936068FC
:1090600002F026FC002306AD00932A00217A6068F6
:10907000083302F00DFC002803D00023637209B00E
:10908000F0BD002F08D02B786A781B031201134320
:10909000AA78120913433B60002E08D0EB782A7996
:1090A0001B03120113436A79120913433360039BB4
:1090B000002BE4D0EB88039A5BBA1380DFE7012032
:1090C0004042DCE7848D020070B50400436B244A03
:1090D0005B109B189E1076430D001A22815E72135E
:1090E0004A431820215ED21059434910521880215A
:1090F000921409025218E18A5143C913081E2AD05A
:109100002020225EF61256431E20225E53431C226C
:10911000A05E5B009B1900049B10C3181B13114831
:109120005D196843104BC01816D4400008F020FEAB
:1091300002002425635F90084343D1084943222558
:10914000605F5B131B182620205E490B4843001309
:1091500018180011801870BD08F00AFE4200E8E7F8
:109160000006FFFFCBF3FFFF000050C3436B244A10
:1091700010B59A188B038021C9015B182E24015F5A
:109180000905591A3024035F80245343CB1A010088
:109190002C31097824025143C912091904003234D0
:1091A0002478DB1364B2624392124A438021921204
:1091B000890352182A24015F28304A4380218901FB
:1091C000521892135343DA1352430178D2114A438F
:1091D00012119B1AC8225205934202DCDA43D217BD
:1091E0001A4064241313980A4443FA209B059B0DEC
:1091F000800058430A21800A08F0BAFD201810BDEB
:1092000000D4FEFFF0B58BB00F0006001400002163
:10921000182204A81D000AF00DF96B4680205F7427
:1092200018746B000B2D26DC002D09D0220004A938
:109230006519147801328870CC7002319542F8D1EA
:1092400000227A2100927068023304AA02F030FBF7
:10925000041E0DD035680949F03503A801F0EEF879
:109260007822280003A902F079FA03A80BF0BFFBCB
:1092700020000BB0F0BD16246442F9E7868D020091
:1092800010B5044BC154C21881210123FFF7BAFF66
:1092900010BDC0460F04000010B5074BC35C082B7F
:1092A00005D10023A1211A00FFF7ACFF10BD002358
:1092B000A0211A00F8E7C046110400000F2373B57F
:1092C00019406B4612011143C9B2DE1C0400317013
:1092D000F0290DD005680A49F03501A801F0AEF873
:1092E0007822280001A902F039FA01A80BF07FFBCF
:1092F00032000123D5212000FFF784FF76BDC04650
:10930000948D0200F7B56B46012700250400DE1C92
:10931000574B3900C7548068357002F02BFD380078
:1093200000F074FE2900A06802F024FD0A2000F07D
:109330006DFE3900A06802F01DFD2B002A00AE2151
:109340002000FFF75FFF051E0FD024684949F03465
:1093500001A801F073F87822200001A902F0FEF9BB
:1093600001A80BF044FB2800FEBD022120000BF0F9
:10937000D2F8051E03D024683F49F034E8E70F22F5
:1093800001002000FFF79AFF3F2120000BF0EBF8CF
:109390003A4B2000E25C3A4BE15C0BF0EFF82B001B
:1093A0002A0029002000FFF72DFF364BE35C002B3D
:1093B00007D11433337032003B008D212000FFF7BA
:1093C00021FF002120000BF089F8051E03D024683E
:1093D0002D49F034BCE701007F2220000BF087F814
:1093E0002900072220000BF08CF82000FFF754FF23
:1093F000051E03D024682549F034A9E720000BF0AE
:10940000A2F8051E03D024682149F034A0E71223F6
:109410003200DA2133702000113BFFF7F3FEFF2109
:109420002000FFF72DFF174BE35C002B0FD1F1332A
:109430003200D92133702000F03BFFF7E3FE3023E8
:1094400032003370DB2120002F3BFFF7DBFE0023CF
:10945000B0211A002000FFF7D5FE042120000BF0F8
:109460005AF8012120000BF061F805007BE7C046A7
:1094700015040000A08D0200AC8D02001304000052
:109480001204000014040000BB8D0200C48D020011
:10949000CD8D02007FB5184E0500815D00290DD1EC
:1094A0007F220BF024F8041E23D10100072228009C
:1094B0000BF027F8041E1CD10123AB5540232B735E
:1094C00000232A0000937A210C4B68680C3202F0CA
:1094D000EFF9041E0DD02D680949F03503A800F0FE
:1094E000ADFF7822280003A902F038F903A80BF099
:1094F0007EFA200004B070BD1504000001040000D5
:10950000D68D020010B504002160210002A8A360DE
:1095100000780B4B62600C31E054002220000BF00D
:1095200041F8084B084A2000E252084A0233E25050
:109530008022074B5200E252FFF7E4FE200010BDEC
:109540000D0400000E0400000480FFFF07080A0459
:1095500014040000F0B587B0039018000C0016004A
:1095600004930AF0D1F900250590059B9D421EDA6F
:10957000049B5A5D0023202A02D91300203BDBB252
:109580000D4A0399DB009B18771CFFB20093320051
:10959000230003980C310BF016F80F2F04D9013477
:1095A000E4B2072C04D800273E000135DDE7059D15
:1095B000280007B0F0BDC046F87C02001423F0B5C7
:1095C000040093B0192200931821043002F044FEE5
:1095D00023002500260064331800B43513211093AE
:1095E000B83607F0D1FD28000CF03AFC00221E210D
:1095F00030000CF0BAF82000D03002F065FA2300F9
:10960000F03307211800454A119301F0E1FE2000D4
:109610000027012369301A0011210097FF3001F063
:1096200049FB20009130012302221A210097FF30CC
:1096300001F040FB2000B930022201210323FF305A
:1096400002F00EFB300001F03BF9E4235B00E05038
:10965000300001F089FBE6235B00E0500100E422CA
:1096600020005200D130119BA2580095FF3001F02C
:109670007DFC2000E13029000822FF3002F088FF45
:10968000782320000F93013B0E93033B0D93013B86
:109690000C93013B0B93013B0A93013B0993013B64
:1096A0000893013B0793013B0693013B0593013B64
:1096B0000493013B0393013B0293013B0193F93077
:1096C000013B652200936421013BFF300CF06EF8F2
:1096D000CB239B002900E01803F01AFFD4239B0042
:1096E000E018092102F0CCFBDE239B00E750109824
:1096F000032127700EF002F8230022002000084901
:109700009C33A0321C6082C2064A02215A6180301A
:10971000012207F0BDFE200013B0F0BD0080020062
:10972000F5450200DF4502000278F0B5012317007D
:1097300004008FB01F401A4200D085E00300D033F0
:109740001800039300F0D2FA00F0E4F930200EF094
:10975000A9FA050010300BF0D9F9280024300BF0DD
:109760006DF86F4B18202B600EF09CFA06006D4BC5
:109770000822390004600C300C930D9709F05AFE52
:109780000CA90822301D09F0ADFD674B290073615B
:1097900012230398AE60EF60AB802F62EF6202F09D
:1097A00007F9002805D028000BF0D5F828000EF0A6
:1097B00075FA012327002278B437134323705B49DD
:1097C00038000CF053FB00265949059038000CF086
:1097D0004DFB35000690642000F018FC0496230031
:1097E0006933FF33180007930BF0BAFB00282DD123
:1097F000059B002B34D1069B002B31D1DE254D4932
:109800004D48AD0000F0C6FC6359002B1CD100F0A0
:10981000A1F801000BA800F011FE0CA80AF05EFFF1
:10982000CB239B00E018069B0CAA0BA90093039B7B
:1098300003F0C8FE0CA80BF0DAF80BA80BF0D7F871
:10984000CD239B00E35863510FB0F0BD2000913051
:10985000FF300BF085FB0028CAD0049B182BC7DC17
:1098600020006530FF2329B232B2FF3000F092FEB3
:10987000322000F0CBFB049B01350133EDB20493A1
:10988000052D02D100250136F6B2049B192B0AD012
:10989000059B002BA3D03800244902F00BFE05984D
:1098A0000EF0FCF902E0059B002BF4D1069B002B87
:1098B00002D018000EF0F2F91E491F4800F06AFCB1
:1098C000CB239B00E3180893DE239B00E358099306
:1098D000002B1ED100F03EF801000BA800F0AEFDF9
:1098E0000CA80AF0FBFE01230CAA0BA90898009310
:1098F000039B03F067FE0CA80BF079F80BA80BF0A4
:1099000076F8CD239B00E3580993DE23099A9B0048
:10991000E2502100079A0898F03104F043F85EE71E
:10992000FD0300006746020027460200E88D0200A2
:10993000F38D020000200020001C0020BFF34F8F99
:10994000024B034ADA60BFF34F8FFEE700ED00E001
:109950000400FA05F0B58BB003AF192238001549A1
:1099600009F0C0FC0023144D05266B7180235B05B4
:109970005B6E2C000093012301933100009808F0E6
:109980007DFA0800019908F0F3F90522009B56437F
:109990001B1A0093019B534301932B1B5343FB184A
:1099A0001B5C013C6371054B9C42E6D102480BB045
:1099B000F0BDC046398E0200C6290020C129002012
:1099C000F0B595B01822002104000EA809F032FD70
:1099D00013210EA80DF0A2FF03210EA80EF041F8EE
:1099E000464B1B68002B00D10133DBB200930021F2
:1099F0000123434A09A807F0BBFEFA239B009C42BF
:109A00009B411C4072B63F4B64211E683E4B2000B8
:109A10000593052508F036FA6843503030180A21BE
:109A20000690200008F02EFA0A2108F011FB694385
:109A300050317118200007910A2108F009FB694391
:109A400050317118802600240891B601009B002B2C
:109A500052D004AD0027032C02D180260024B60189
:109A60006B682A4A02936300D31800220192587847
:109A70000299095C039119788C46102160460141D6
:109A80000398014204D001209040019901430191C3
:109A900001320633092AEAD1019B2A68D9431C4BBB
:109AA00009011940029B934224D1312F22DC00216D
:109AB00009A80EF08FF8FA23139A0F99DB001068AB
:109AC000014219D0013B002BF9D1FA2301340137AF
:109AD0007600E4B25B009F42BDD1043508ABAB42D7
:109AE000B8D1064B1B68002BB0D0009B013BDBB20A
:109AF0000093ABE73143DBE7FFF720FFA024002012
:109B0000F0FF000008200020888E0200528E020024
:109B1000F01F0000F8B50023124C23600AF0FFFD8F
:109B2000002808D0042120000AF0F5FD002801D00B
:109B30000D4B2360F8BD0123A12704210B4A0C4DD6
:109B400013602368FF0068606E68002EFCD0D65951
:109B50001B02013933430029F5D1236001235360EF
:109B6000E8E7C0469C240020ED5EBC0B00D000401E
:109B7000FCD000400B4B70B51C68002C10D0656DFC
:109B800000F018FCA36C002901D1834206D8200004
:109B90000AF01CFE200004490AF008FE2C00ECE745
:109BA00070BDC046A8240020C8240020F0B595B0A0
:109BB00007932A4B04AC1E68049005910692002E70
:109BC00049D0274B678825881C6800230293002C06
:109BD0002DD0636D23480393A36C190C9AB20B002C
:109BE000854214D12048824211D1002901D0B942C6
:109BF0000BD1029B002B08D120000AF0E7FD2000CA
:109C00001A490AF0D3FD01230293039CDFE7002ADF
:109C100001D09542F9D1002901D0BB42F5D12000F5
:109C20000AF0D4FD200011490AF0C0FDEDE7104B09
:109C3000EB18012B0FD910233A002900009308A834
:109C40000C4B0AF06EFE336830009B6808A99847F9
:109C500008A80AF080FE15B0F0BDC046A42400207C
:109C6000D8240020FE030000FF030000C8240020C9
:109C700002FCFFFFAD9B010010B572B60E4B1C68D5
:109C8000002C0ED020000AF0A1FD0023E3640B4B52
:109C9000E36372B60A4B1A681C60A26562B62000C4
:109CA00010BD62B65C200DF0FDFF5C2200210400B7
:109CB00009F0C0FBE9E7C046D024002000400020A6
:109CC000CC240020074B10B51C68E36CDB0706D5DD
:109CD000FFF7D2FF044B1860002800D004002000DA
:109CE00010BDC046DC240020AC240020F7B51E4C7B
:109CF0000123227816001E401A4233D11B4D2860E2
:109D0000FFF7BAFF1A4B1B4918600AF04FFDFFF727
:109D1000B3FF194B1860194B4363194B83632868D1
:109D200000280FD0C023174F3200174900933B0083
:109D30000AF016FDC023009332003B001349286847
:109D40000AF00EFD0C200DF0ADFF0023838083711F
:109D50000F4B03600F4B836000F044FB012322781C
:109D600013432370F7BDC046CC290020A424002053
:109D7000DC240020C8240020D4240020FC3F002044
:109D800031480200AD9B0100FF030000FE0300000C
:109D900020800200759B0100024B187801231840B7
:109DA0007047C046CC290020F7B5134F04003B682C
:109DB0000E00002B1ED0114B1B78DB071AD5FFF7C6
:109DC00081FF05003304234383640AF0FFFC28006D
:109DD0000B490AF0EBFC0B4B0025E318012B07D9CC
:109DE000C023009332002100074B38680AF0B8FC0A
:109DF0002800FEBD054DFBE7A4240020CC2900204F
:109E0000D824002002FCFFFFAD9B010016FCFFFFE1
:109E1000F7B506000D0017000193002802D10024B9
:109E20002000FEBD0029FAD0FFF726FF041EF6D061
:109E3000074B019A43630660064B45608760002A22
:109E400000D0054B20000549A3630AF0AFFCE7E70B
:109E5000FC3F00200B48020019480200C8240020E3
:109E600070B5074B0E0011001A7805000123100091
:109E700018401A4203D032002800FFF7C9FF70BD16
:109E8000CC290020F8B50500EFF30884C36B006C03
:109E90001C1B6B6C1B1A9C420FD91F23074E2034CE
:109EA00037689C43002801D000F0D6F9200000F06C
:109EB0009FF92864001968643760F8BDDC2400202D
:109EC000024B1868434258417047C046C8240020DE
:109ED0000300002210B5044994006058002801D006
:109EE0000132F9E7635010BDB0240020002310B503
:109EF000044A99008C58844201D00133F9E70020CC
:109F0000885010BDB024002010B50024084BA200DA
:109F1000D058002802D003685B6898470134062CAB
:109F2000F4D1044B1B68002B00D120BF10BDC046EC
:109F3000B0240020C82400200122F8B52C4B1B7847
:109F400013421CD02B4D2C68E36C134218D002270F
:109F50003B43E364284B1E680423F26C3000134338
:109F6000F364636BF363FFF78DFF3000716C04F0F3
:109F70001AF92868C36C3B4201D004F04EF9F8BDD1
:109F80001E4F1F4E3A683068002A0AD128601B070E
:109F900012D52C60FFF7B8FF3B68002BFAD02B607E
:109FA0000AE0216DB94219D1616D002900D111007B
:109FB00029602A688242EAD029688C42DFD033685F
:109FC00099420DD10F4B4B630F4B8B632000FFF772
:109FD00059FF296820004B6C626C06E02A60E8E7B4
:109FE0009C42F3D1002210004B6C04F09BF8C6E7B2
:109FF000CC290020DC240020AC240020C824002030
:10A00000D4240020FC3F00203148020070B50C4BE6
:10A0100004001B78DB0702D40DF01CFD70BDFFF7B8
:10A0200051FE050000F0C6F92418AC6428000AF0BF
:10A03000CDFB280003490AF0B9FBFFF77DFFEDE7F0
:10A04000CC290020A8240020F8B51B4B1B78DB0787
:10A0500027D50024194E30680AF0B8FB184D2B683C
:10A06000002B02D05B6D0134FAE7032C0ADD2F6868
:10A07000013C7B6D386C2B6000F0EEF8380000F08E
:10A08000EBF8F2E7290030680AF090FB72B60D4950
:10A0900032680B68934206D19B6D0B6062B6FFF786
:10A0A0004BFFF8BD0B00002BF8D0996D8A42F9D117
:10A0B000926D9A65F2E7C046CC290020DC2400208E
:10A0C000D0240020CC24002010B5034B1B78DB07E4
:10A0D00001D5FFF7B9FF10BDCC290020F7B5050069
:10A0E0000C00002833D001261B4B1B78334230D0A4
:10A0F0001A4F07233868C26C1100194000911A42A8
:10A1000007D021002800164AFFF7AAFE00252800E4
:10A11000FEBD04F06AF83A680221D36C18000840CA
:10A1200001900B4203D001318B43D364EEE73343FC
:10A13000D3642000A8473A68019DD36C1900B1434D
:10A14000D1645B07E3D52000FFF7BEFFDFE7054DD5
:10A15000DDE7054DDBE7C046CC290020DC240020EC
:10A16000C9A0010017FCFFFF16FCFFFF020010B59D
:10A17000014B12CB12C210BDE0240020034B1A6821
:10A18000034B1A607E225A607047C04608200020A8
:10A19000E0240020F0B5124E03003278022A1BD0D2
:10A1A00081421BD90C1A072C18D90D00054303272F
:10A1B000280038403D4211D172B6BA40094DA4087A
:10A1C0005351AA1851608022120614431C60337840
:10A1D0000133337062B6F0BD0348FCE70348FAE789
:10A1E000CE290020E824002013FCFFFF17FCFFFF0E
:10A1F00070B5041E23D0124D124E2B78002B0CD1BB
:10A20000114912483370FFF7C5FF114B984202D134
:10A210001E20FFF7D5FB01232B7000253378AB42BE
:10A2200009DD0C49EB002000C9180AF00BFB0028DF
:10A2300005D10135F2E71420FFF7C2FB002070BD05
:10A24000CD290020CE29002000380020902A0020AF
:10A2500017FCFFFFE824002010B5002817D00022CB
:10A260000F4B19780F4B914215DD1C6884420FD2B9
:10A270005C6884420CD9041F2368002B02DC1E207A
:10A28000FFF79EFB802322681B061343236010BD4B
:10A2900001320833E7E71E20FFF792FBF7E7C046DD
:10A2A000CE290020E824002070B5051E14DD0B4ED9
:10A2B0000B4C3368002B02D020680DF082FAFA2193
:10A2C00020680024074B89008361C46269433560BC
:10A2D0000DF088FA200070BD0348FCE7F824002048
:10A2E0002825002091A3010017FCFFFFF8B5114FAE
:10A2F00005003E68002E0AD130200DF0D3FC04008A
:10A3000006F0AAFF0C4BA6612360E6623C600B4E90
:10A310003368002B09D110200DF0C4FC04000DF0AF
:10A32000ADFA200034600DF083FA2800FFF7BCFF7F
:10A33000F8BDC046282500202C88020024250020D6
:10A34000014B18687047C046F824002070B50D4CCA
:10A350002368002B03D00C4B1B68002B02D1062076
:10A36000FFF7C4FF20680DF07AFA02000749C3170F
:10A370000D684E685219734120680A604B600DF0F9
:10A3800074FA70BD2425002028250020C02000205C
:10A3900010B5FFF7DBFF0024054BA200D0580028C2
:10A3A00002D003681B68984701340A2CF4D110BD11
:10A3B000FC24002010B5FFF7C9FFFA22034B9200DE
:10A3C00018685968002307F083FE10BDC0200020E4
:10A3D00010B5FFF7BBFF024B1868596810BDC046A7
:10A3E000C02000200B4B10B51B680400002B03D0CD
:10A3F000094B1B68002B02D10620FFF777FF0023D3
:10A40000064A99008858002801D00133F9E78C509A
:10A4100010BDC0462425002028250020FC24002053
:10A42000002310B5044A99008C58844201D00133AE
:10A43000F9E70020885010BDFC24002010B504006E
:10A44000002902D00B78002B03D1034B236020009E
:10A4500010BD0AF0D3FAFAE730800200F8B5050023
:10A4600008000C000AF07FFC002803D1124B2B607F
:10A470002800F8BD20000AF076FC0530FFF7B8FE92
:10A4800028600AF073FC20000AF06DFC2E687080D2
:10A4900020000AF065FC070020000AF064FC390087
:10A4A0000200301D08F01EFF20002E680AF05BFC41
:10A4B000002336183371DBE730800200F8B5040062
:10A4C0000E00150000290AD00B78002B07D0002AB7
:10A4D00005D0080097B209F017FA874203D90B4B51
:10A4E00023602000F8BD681DFFF782FE20600AF09F
:10A4F0003DFC20682A0047803100043008F0F2FE5D
:10A5000023685D1900232B71EBE7C0463080020001
:10A51000014B03607047C0463080020010B505480B
:10A52000054C20600AF025FC2000044A04490DF087
:10A53000AEFB10BD308002002C2500200020002042
:10A54000EF490200084B73B51D680400002D0AD0C6
:10A5500001002E6808220831684608F0C3FE0CCCC2
:10A5600028003168884773BD30250020014B036007
:10A570007047C0463880020010B50400081E03D1A1
:10A58000034B2360200010BD21600AF0F2FBF9E7C5
:10A590003880020030B500684488A1420CDA858812
:10A5A000AA4209DA002907DB002A05DB62434018CA
:10A5B00080188371002030BD0048FCE717FCFFFFC6
:10A5C000F0B507000E001D0085B0002921DD002A2E
:10A5D0001FDD002B1DD00468638803938B4200DDD0
:10A5E0000391A3880293934200DD02920023063474
:10A5F0000193019B029A93420ED029002000039AF6
:10A6000008F070FE3B68AD195B88E418019B0133CC
:10A61000EEE7024805B0F0BD0020FBE717FCFFFFA6
:10A62000F8B504000D0016001F00002901DB002A08
:10A6300002DA0D4B2360F8BD100048430630FFF7E7
:10A64000D7FD20600AF092FB23685D809E80002F7A
:10A6500006D03B00320029002000FFF7B1FFEAE7F7
:10A6600020000AF0A4FAE6E738800200F7B50700F8
:10A670000D1E03D1244B03603800FEBD00240800EA
:10A680002600210001940378002B1AD03022524278
:10A6900094469C446246092A11D90A2B0AD1019B8F
:10A6A000361901330193B14200DA3100002426004B
:10A6B0000130E8E7002CFBD000240136F8E7012444
:10A6C000F6E7019A380012B209B2FFF7A9FF01219B
:10A6D00049420E000A203B689A1D2C78002CCBD0F2
:10A6E0002300303B092B08D8CB43DB170B404343F7
:10A6F0001B19303B19000135EFE70029FBDB117016
:10A7000031000132F7E7C04638800200F0B504009E
:10A7100087B004A80E001D000192FFF727FD2368F3
:10A7200001995A88914233DA9B889D4230DA1F2E74
:10A730002ED9059B00939E422ADC052300217343FA
:10A74000049AA03BD3180393039B6E185B5C02939F
:10A750000023019AD718226850880090B8420EDD75
:10A760009088B0420BDD0098D21970431218102067
:10A770001841029F3840471EB84140429071013352
:10A78000052BE6D101310529DED1002007B0F0BD4F
:10A790000048FBE717FCFFFFF7B5036806009F1DA5
:10A7A0005B880D005A1A0192002919DD0024994294
:10A7B00003DB0AF0FCF9002013E033689B889C421D
:10A7C000F9DA79193800019A08F08CFD019B29000B
:10A7D000F8180AF0CFF9336801345B88FF18ECE70A
:10A7E0000048FEBD17FCFFFF10B50548054C206072
:10A7F0000AF0BFFA2000044A04490DF048FA10BDDF
:10A80000388002003425002000200020674B020021
:10A8100010B5054C012120000AF093FA2000034AEC
:10A8200003490DF034FA10BD382500200020002027
:10A83000EF4C0200074A030010B50120934208D0F4
:10A84000834202D00020DB0703D41E20FFF7B8F8B4
:10A85000002010BDFFFF00000048704716FCFFFFFE
:10A8600010B53220FFF7ACF8004810BD16FCFFFF12
:10A8700082801422002310B541620F4C010008347D
:10A8800004600E240281123A83718272036383860C
:10A8900036310A78C360A243036143618361C361B7
:10A8A00003620A70021DD38701224287034AC263F2
:10A8B00002004032137010BD5880020001000100F8
:10A8C000F0B5564E0500376897B0002F00D090E0E5
:10A8D00006AC0B231C228221200001F0F9F90B2386
:10A8E0001D2283210AA801F0F3F90B231B228421E6
:10A8F0000EA801F0EDF908200DF0D4F901223B007B
:10A90000110004900BF014FE3A2128000BF02FFBED
:10A9100000281CD0A38812AFBB80A379A268BB71AA
:10A920003F4B5C2012930E23E3561492A289BB7313
:10A93000BA810DF0B7F905230193353300933A003E
:10A940002900049B040002F025F9346051E0322113
:10A9500028000BF03AFB00281BD0A38812AFBB8065
:10A96000A379A268BB712E4B5C2012930E23E35691
:10A970001492A289BB73BA810DF094F90523019357
:10A980002D3300933A002900049B040002F0A6FA3C
:10A99000DBE73C2128000BF0D3FA002834D0362224
:10A9A00002AB9B8E12AFBB8002AB9B181B780832A8
:10A9B000BB711B4BA420129302AB9B18109A1B78FF
:10A9C0001492059202AA928F5BB2BA81BB730DF00A
:10A9D00069F9062304000293013B01933733009386
:10A9E0003A00049B290001F0F5FF0E4B346044341B
:10A9F0001C600C4B094C1868002802D021680AF032
:10AA00001DFB206817B0F0BD44200DF04BF9052266
:10AA100004990400FFF72CFF97E7C0463C2500206F
:10AA20004880020040250020F0B56349C56885B024
:10AA30008D4258DA030036331C780222230013407B
:10AA400014425BD1026901928A4265DA0200363211
:10AA5000127852076AD4426902920200029C403284
:10AA60008C4270DA010036310978090775D4002B61
:10AA70007ED113789C46002B16D00100061DF38F63
:10AA8000363101339BB2F3870391097801270C001B
:10AA90003C40394200D188E01D2B05D9039BB943C6
:10AAA00019700023F38713700AF0A8F9434A0723AB
:10AAB000904277D94249043B8D4273DBC82201336F
:10AAC000920095426EDC0198023B88426ADB013BB2
:10AAD000904267DC02980433884263DB0023904293
:10AAE00060DD06335EE0C822002352009542A9DDF6
:10AAF000030036331A7800239207A3D401230600FB
:10AB00001F00363632785408A7433C0002279C4089
:10AB1000BA432243327095E7C822019C5200944206
:10AB200099DD020036321278520794D401230600D0
:10AB30001C00363632789708BC43A7000424A24391
:10AB40003A43327087E7C821029C49008C428EDD6F
:10AB5000010036310978090789D401000126363110
:10AB60000B78DF08BE430827F600BB4333430B7066
:10AB70001378032B00D97CE70133DBB21370012B70
:10AB800003D10021031DD98773E7042B00D070E7A0
:10AB9000020036321178033B0B431370002304305C
:10ABA000C3870B33180005B0F0BD092B00D87BE735
:10ABB0006346F487013B76E770FEFFFFFF700200FB
:10ABC000E0FCFFFFF0B5C369C1681A68451D0400C9
:10ABD000EB7F89B0114225D0002B57D10123A279F8
:10ABE0001A4237D0002602226846A188A67109F0D1
:10ABF00097FFA31DDD7F012D2CD1FFF7DBFB330079
:10AC0000226A801A99410F000600A1889F4203D151
:10AC1000FA239B009E423BD30123042204A809F09F
:10AC20007FFF17E00B2B01D80133EB77EB7F082B6D
:10AC30000DD90122A37913420CD11343A188A3712A
:10AC400004A8130009F06CFFFFF7B4FB2062EB7F50
:10AC5000012BC3D90322A3791340012B14D1FFF791
:10AC6000A9FB0023226A801A9941994202D10A4B1A
:10AC7000984209D90223A279A1881343A37105221E
:10AC8000012304A809F04CFF09B0F0BD013BCCE75B
:10AC90002B000322C2E7C046DB05000010B504000C
:10ACA000034B08330360FFF7BBFB200010BDC04619
:10ACB0008C800200F0B5060000250F00040085B06E
:10ACC00002930AAB1B78083603930F4B2900083315
:10ACD00003600192858085711822300008F0AAFB7C
:10ACE00039003000039A0CF01EFE019B029AA380EB
:10ACF000A31DE771DA77631D25622000DD77FFF77A
:10AD000071FB200005B0F0BD8C8002000048704748
:10AD100016FCFFFF10B53320FEF752FE004810BDB1
:10AD200016FCFFFF002310B50400838083710D48DB
:10AD30002164083020608020C000A061E0612062B2
:10AD400011002000E360236163616362A362E36238
:10AD500023636363A363E36363640AF047F920003A
:10AD600010BDC046A4800200F0B5544E05003768FF
:10AD700097B0002F3DD10B231C22822106A80AACDC
:10AD800000F0A6FF0B231D228321200000F0A0FF6E
:10AD90000B231B2284210EA800F09AFF08200CF040
:10ADA00081FF01223B00110004900BF0C1FB1D212B
:10ADB00028000BF0F3F8002824D0A38812AFBB8042
:10ADC000A379A268BB713E4B602012930E23E35619
:10ADD0001492A289BB73BA810CF064FF062301931D
:10ADE000173300933A002900049B040001F0A6FFEA
:10ADF0003460344B314A1B681068002B00D0436428
:10AE000017B0F0BD3C2128000BF0F6F800281BD04D
:10AE1000A38812AFBB80A379A268BB71284B6020C6
:10AE200012930E23E3561492A289BB73BA810CF0DD
:10AE300039FF06230193363300933A002900049B1F
:10AE4000040002F0EDF8D3E73C2128000BF078F87D
:10AE5000002829D0362202AB9B8E12AFBB8002ABFA
:10AE60009B181B780832BB71154BA420129302ABC0
:10AE70009B18109A1B781492059202AA928F5BB2CB
:10AE8000BA81BB730CF00EFF062304000293013B52
:10AE90000193373300933A00049B290001F09AFD97
:10AEA000084B1C604434A3E748200CF0FBFE06224C
:10AEB00004990400FFF736FF9AE7C04640250020BA
:10AEC000488002003C250020F0B587B001930EAB0E
:10AED0001B88060003930D9B0D000093019B0C9FA4
:10AEE0000292002B3DD0002F02D1009BDB0738D50A
:10AEF00030200CF0D7FE0400103009F007FE2000CF
:10AF0000243009F09BFC029B1820258063800CF004
:10AF1000C9FE0500009B08220593019B00210360E8
:10AF20000C30049708F086FA082204A9281D08F0BE
:10AF3000D9F90D4B02226B6100230399E360236270
:10AF4000E36233680A43300021005B68A560A28099
:10AF50009847002805D0200009F0FDFC20000CF0E7
:10AF60009DFE07B0F0BDC0468150020070B58CB0A8
:10AF70008360109B01604260C360040018491800A0
:10AF80000AF074FF051E14D001001C22103105A820
:10AF900008F0A8F96A4608AB43CB43C21B681360AC
:10AFA00020680599069A079B0AF032F828000CF0F1
:10AFB00075FE0C4B186800280ED00B4A05AB0592A5
:10AFC00000220692C03202926A4622CB22C223009D
:10AFD00003220621FFF778FF20000CB070BDC046A9
:10AFE0006890020030250020EDAF010082B0F0B57E
:10AFF0000400EDB06420739372920CF02BFD0522D7
:10B0000010A8110009F0DCFD954911A8FFF72EFBEF
:10B010001925002221AB013D1A605A609A600C3359
:10B02000002DF8D11522290014A8139508F002FA72
:10B03000A0680AF093FBFF210A90A06800F01EFCB4
:10B04000884FA06800F0BEFA049508950995854BD5
:10B050009F4203D0844B9F4200DBF7E0A0680AF0D8
:10B060007FFBA56881491AA8FFF7E8F978221AA999
:10B07000280000F049FB1AA809F0B9FC0023794F19
:10B0800004930326099B606801333340099309F058
:10B090004DFF0500606809F050FF0022744B0592D7
:10B0A0009D420FDB013205922A00C8320ADBAA2238
:10B0B000042192000591954204DC0596C82D01DC1F
:10B0C0000222059200220692984210DB0123069389
:10B0D0000300C8330BDBAA2304329B00069298427C
:10B0E00005DC03230693C82801DC013B069310A866
:10B0F00009F05DFD5F4B00251E00079313ABEB5C71
:10B10000012B05D172783178FE3310A8FFF742FA8F
:10B1100001350236192DF1D16B4618229A5E6B4625
:10B1200010A81421595E099BFFF734FA002F02DBA7
:10B13000049B0F2B07D90023A0681A0074300093DA
:10B1400010A909F04AFD13AE079B059A1B7893429C
:10B1500021D1079B069A5B7893421CD13378012B4F
:10B1600019D00C23089A0CAD534328000022216803
:10B170000B9309F065FF21AA94460B9B634407CD0E
:10B1800007C301233370089B0133DBB20893049B90
:10B190000133DBB20493079B374A0233079301362E
:10B1A0009342D1D164200CF055FC089B643F3FB220
:10B1B000182B00D84BE71A0021A91AA80AF04FF95A
:10B1C0006A461DAB23CB23C21B6813601A991B9AD6
:10B1D0001C9B206809F01CFFE568002D0CD0274956
:10B1E00012A8FFF72BF91C2328001AAA12A90AF0AB
:10B1F00072FE12A809F0FBFBA0680AF0B1FA11A9CF
:10B2000012A8A56809F0BCFC00221D4B009212A9EF
:10B2100001932800130000F019FA12A809F0A3FC0A
:10B22000FA2080000CF016FCA0680AF099FA0A993E
:10B23000A06800F023FB11A809F095FC10A809F004
:10B2400092FC6DB0F0BC08BC02B01847002F03D0D0
:10B25000049B0F2B00D014E7A06800F0B3F910E7AF
:10B26000739002008C3C0000D18AFFFFB89002006E
:10B2700058FDFFFFCD900200FF9002006890020091
:10B28000DC050000F0B5040085B0637A9C46002B15
:10B2900004D120000AF001F905B0F0BDA37A266FB1
:10B2A00001931023019AF35600259B1801229A401E
:10B2B0002900F36803920293029BAB4231DDB06830
:10B2C000019B6843C01873694000E77A1A181B5C39
:10B2D0005078E279012F14D1571E3F1A18003B0015
:10B2E0004243606F52008218D2189379634500DDA3
:10B2F0006346627B1A4202D00123AB4019430135F9
:10B30000DAE7022F07D0032FEAD1277A013FFF1A8D
:10B3100003003800E4E7571EFB1A277A013F381A6A
:10B32000DEE71123C943F356606C99402369194045
:10B33000039B19430CF04EFCA27B072AACD8637B1D
:10B340000C495B006373531CDBB290004158A3733C
:10B35000022A03D808000CF072FB96E7064B200087
:10B36000236300236363054BE462236414300CF011
:10B3700039FA91E7D080020085B2010085540200BD
:10B3800070B50400104B250008330360FFF748F840
:10B390002000743009F0E7FB2000603009F0E3FB87
:10B3A0002000583009F023FB2000503009F01FFB2B
:10B3B000064B1435280063610CF003FA280005F0F1
:10B3C00061FF200070BDC046F08002002C880200A2
:10B3D000F8B500250400324B858008330360857181
:10B3E000143016000F0005F037FF20002D4BE562EA
:10B3F000636125645030FFF78BF820005830FFF769
:10B4000087F820006030FFF7B1F820000423F25ED7
:10B4100033682667590009B2743009F0D1FB3368EC
:10B42000226FE37173680126237210236581A78060
:10B430002561D35691685918994204DD300098402F
:10B4400001330543F8E711230120D356D168591879
:10B45000994206DD02009A40266901333243226197
:10B46000F6E714200CF01EFC226900212A43012378
:10B47000060006F07DF9FF23220063720133A381E9
:10B48000002348326664A37320001370A366FEF79E
:10B49000A9FF0123A27920001343A371F8BDC04680
:10B4A000F080020040880200F0B5437A040085B0C5
:10B4B000002B04D1200009F0F0FF05B0F0BD837A25
:10B4C000066F01931023019AF35600259B18012261
:10B4D00094469A402900F36803920293029BAB4280
:10B4E0002DDDB068019B6843C01873694000E77A9E
:10B4F0001A181B5C5078E279012F10D1571E3F1AA1
:10B5000018003B004243606F52008218D2189379B2
:10B51000002B02D06346AB4019430135DEE7022F12
:10B5200007D0032FEED1277A013FFF1A030038001E
:10B53000E8E7571EFB1A277A013F381AE2E7112382
:10B54000C943F356606C994023691940039B194322
:10B550000CF040FB667AB31EDBB2FC2B14D8FEF76E
:10B56000EFFE0C4B0500236300230B4863630B4B7A
:10B57000FF217043E462236406F084FC2900414308
:10B58000200014300CF02EF9637A012B00D994E7D7
:10B5900090E7C0469B540200B603000085540200A9
:10B5A0001FB5012381881A00684609F0B9FA012302
:10B5B00068461A00024909F0B3FA05B000BDC0465A
:10B5C000FE0300001FB5030048331A780400002A68
:10B5D0000DD000221A70012381881A00684609F0F4
:10B5E0009FFA012368461A00034909F099FA2000DE
:10B5F000743009F0DCFA1FBDFF03000010B5040031
:10B60000230048331A78002A07D01B78012B04D076
:10B610000121024809F0F0F8F2E710BDFF03000035
:10B6200010B501210400072009F0E6F8064B984206
:10B6300008D148342378002B04D02378012B01D083
:10B6400020BFF7E710BDC04616FCFFFF73B5079C8F
:10B650000500002C1CDB060048363078002802D09C
:10B660003078012816D106981BB2C0B2009028008D
:10B6700012B2743009F0B1FA002C07D02B004A3313
:10B680001C80002407234C352C803370200076BDAD
:10B69000014CFBE7014CF9E717FCFFFF12FCFFFF31
:10B6A000F0B587B00D9C05000E0017000393002C29
:10B6B00021DBFFF7A3FF2B0048331B78DAB202929D
:10B6C000002B1AD1310005A809F05AFA0C9B3A0058
:10B6D00000932800039B019405A9FFF7B7FF05A875
:10B6E00009F041FA002C03D02800FFF799FF029CD3
:10B6F000200007B0F0BD024CFAE7024CF8E7C04664
:10B7000017FCFFFF11FCFFFFF8B50400171E1DDD3D
:10B71000060048363378002B02D03378012B17D13E
:10B720002200E3795632013B1370230000252000EC
:10B7300054331D80503009F0B7F923004A331F807D
:10B74000022328004C3425803370F8BD0148FCE703
:10B750000148FAE717FCFFFF12FCFFFFF7B50400F2
:10B760000F00161E18DDFFF749FF230048331B7832
:10B77000DDB2002B12D1390001A809F08DF9320099
:10B7800001A92000FFF7C0FF01A809F030F920004F
:10B79000FFF746FF2800FEBD0148FCE70148FAE735
:10B7A00017FCFFFF11FCFFFFF8B50400171E2DDD8D
:10B7B000060048363278002A02D03278012A27D192
:10B7C0005D42069BFF331FD16B1D22001BB264320A
:10B7D00013802300200066331D70603009F0D8F913
:10B7E000230000226C331A70954200D03D002300E4
:10B7F0004A331D80079B00205A1E9341013F4C3461
:10B80000053327803370F8BD069BDEE70148FAE771
:10B810000148F8E717FCFFFF12FCFFFFF0B504003A
:10B820000F0016001D0087B0002A1FDDFFF7E6FE9F
:10B83000230048331B78DAB20392002B18D1390069
:10B8400005A809F09DF90D9B320001930C9B05A9F9
:10B85000009320002B00FFF7A7FF05A809F083F94C
:10B860002000FFF7DDFE039807B0F0BD0148FBE7BD
:10B870000148F9E717FCFFFF11FCFFFFFF2902D881
:10B880004172002070470148FCE7C04617FCFFFFEB
:10B8900013B5040004A80078009020000BF006FF08
:10B8A000002801D1207516BD0048FCE70EFCFFFF03
:10B8B00013B5040004A80078009020000BF0DEFE11
:10B8C000002801D1207516BD0048FCE70EFCFFFFE3
:10B8D0007FB50D0011000F226A4404001E1E117076
:10B8E00015D0089B002B12DD012329000093FFF7E0
:10B8F000DFFF002808D10090320029002000089BBB
:10B90000FFF7C6FF002800D0024804B070BD02480F
:10B91000FBE7C0460EFCFFFF17FCFFFFF7B5060074
:10B920000D1E3ED00023022704690193002C34D061
:10B93000AA88A38853403B422DD13A4222D1A36822
:10B94000AA68934227D12B88002B02D022889A42E2
:10B9500021D16B88002B02D062889A421BD1EB6800
:10B96000E268934201D0002B15D17368002B01D0FF
:10B9700020009847A2880C4B1343A380019B0133FE
:10B98000019308E0A968A0680AF0B8FD0028DAD1A0
:10B99000AB883B42D3D0E46AC8E7019B2000002B70
:10B9A00000DC0248FEBDC0460080FFFF17FCFFFF21
:10B9B000F0B506000D0085B000295DD001270469AF
:10B9C000002C27D00221AA8800230A4202D0A38893
:10B9D0005B083B40226829688A4215D1A068A968A3
:10B9E000002B0FD00AF08AFD00280DD0EB68E2682A
:10B9F000934209D10421625EA388002A06DB1F4816
:10BA000005B0F0BD8842F1D0E46AD9E75B045B0C75
:10BA1000A380F4E730692A880100031E07D135614D
:10BA200001236846164909F07BF80020E8E71C88E6
:10BA3000944206D2DC6A1900002C0DD02300F6E7F0
:10BA400023001C88944207D15F886C88A74203D8E2
:10BA5000DC6A1900002CF3D1884209D10B889A4284
:10BA600004D305D148886B88984201D9E962D6E7AA
:10BA7000CB6AEB62CD62D3E70248C1E716FCFFFF59
:10BA8000FD03000017FCFFFF064B10B51A00040071
:10BA900008322C33026083600830FEF727FA20005A
:10BAA00010BDC0460881020008B4024B9C4608380D
:10BAB00008BC604789BA010008B4024B9C460838AC
:10BAC00008BC6047D75802000C4A002311002C32F2
:10BAD000083110B5436083818373826003614361E1
:10BAE00083618383016004000830FEF7F1F9044BA1
:10BAF0001A68002A00D11C60200010BD08810200D5
:10BB00003025002082B0F7B50125402609930CAB03
:10BB10001B78046908920193002C38D008AA238866
:10BB200012889A4201D0002B29D108AA6388528832
:10BB30009A4201D0002B22D1FEF72EF901230028D2
:10BB400006D0C022A3881340C03B5A425341DBB207
:10BB5000019A934219D10422A35EA788002B14DB1B
:10BB6000102208A9A01807F0BDFB374209D1FEF743
:10BB700013F9002805D021000748FEF7AFFAE46A60
:10BB8000CAE7200009F0B0FEF9E70025F7E7280032
:10BB9000FEBC08BC02B01847E958020008B4024BCA
:10BBA0009C46083808BC6047855A020010B5024818
:10BBB00008F0ACFF10BDC046C8200020F0B587B02B
:10BBC00001930EAB1B88060003930D9B0D000093A1
:10BBD000019B0C9F0292002B3DD0002F02D1009BB5
:10BBE000DB0738D530200CF05DF80400103008F089
:10BBF0008DFF2000243008F021FE029B18202580B4
:10BC000063800CF04FF80500009B08220593019B10
:10BC1000002103600C30049707F00CFC082204A9F3
:10BC2000281D07F05FFB0D4B02226B610023039977
:10BC3000E3602362E36233680A43300021005B68FB
:10BC4000A560A2809847002805D0200008F083FE58
:10BC500020000CF023F807B0F0BDC046D35A020014
:10BC6000F0B5160000258380164A174B0400857135
:10BC7000026001814681057318688C4689B0A8422C
:10BC80001DD0124A05950492C02202926A4604AB66
:10BC900082CB82C223002A006146FFF78FFFC022B9
:10BCA000094B0A49186802926A46069106AB079545
:10BCB00082CB82C223002A003100FFF77FFF2000E1
:10BCC00009B0F0BD4C81020030250020FD5B020070
:10BCD00030B5002403730123034D84710560818016
:10BCE00082734373846030BD4880020070B58379ED
:10BCF0000400DB0704D58068002801D00BF0CEFFDC
:10BD0000A3799B0704D5A068002801D00BF0C6FFDB
:10BD1000A3795B0709D5A0230021154AA068DB00A1
:10BD2000D150884201D00BF0B9FFA3791B0708D589
:10BD3000A568002D05D028000AF050FC28000BF063
:10BD4000ADFFA379DB0605D5A068002802D0036803
:10BD5000DB6898476023A2791A4205D0A0680028C2
:10BD600002D003685B6898470023A360A37170BD8D
:10BD700000700040F7B50227037B04000D003B4232
:10BD800028D0012928D883791A003A4001923B42F1
:10BD900014D1FFF7ABFF18200BF084FF0E23060031
:10BDA000E35618220199009307F044FB30000099F4
:10BDB0000BF0C3FDA379A6603B43A371A3685A6847
:10BDC000002D04D00025DB681A602800FEBD1B6929
:10BDD0001A60FAE7014DF8E7014DF6E716FCFFFFA0
:10BDE00017FCFFFFF7B50126037B040033422CD07C
:10BDF000827961231100194001911A4216D1FFF78F
:10BE000075FF18200BF04EFF0E230500E356677BED
:10BE100018220199009307F00DFB3A0028000099C1
:10BE20000BF081FDA379A5603343A3716023A27950
:10BE3000A0681A4202D00BF05AFCFEBD436940686C
:10BE40001B681840431E9841F7E70148F5E7C046D4
:10BE500016FCFFFF012210B583794173134204D011
:10BE600080680BF0FEFD002010BD6022134203D05D
:10BE700080680BF043FCF6E70048F5E716FCFFFF8F
:10BE800070B5040000250C4B0E00083385808571C9
:10BE900003602100183009F062FF200021002030EB
:10BEA00009F088FF054B2000A680E5802572E5603B
:10BEB000256165611C6070BD5C8102004425002025
:10BEC0008379DB0702D5C160002070470048FCE79A
:10BED00016FCFFFF8379DB0701D5C0687047014876
:10BEE000FCE7C04616FCFFFF70B545690400002D55
:10BEF00022D0037A032B21D8FFF7ECFFE862302031
:10BF00000BF0D0FE30220021050007F093FA00224A
:10BF100063699A622369934207D1636923610020B0
:10BF2000237A65610133237270BD1A009B6A002B6E
:10BF3000FBD163699362F2E70148F5E70148F3E753
:10BF400017FCFFFF13FCFFFF144B70B55A68144C2D
:10BF5000002A03D000225A600132A2601A69002A26
:10BF600017D0002119618023DB000E4DE3582868AB
:10BF7000012B0FD1A923DB00E1584942FFF7A0FFB5
:10BF80002868FFF7B1FF2B685A69074BE25001237D
:10BF9000A36070BDFFF794FFF9E7C046FC100040B6
:10BFA00000100040442500200405000070B5050085
:10BFB0000C0008F0B4FB002804D1034A034BEC71D9
:10BFC000D45070BD0248FCE700100040240500007A
:10BFD00016FCFFFFF8B5837905000020DB0765D468
:10BFE00008F09DFB002862D16E69002E08D1303028
:10BFF0000BF058FE04003022310007F01BFA6C6190
:10C0000000222C4B01215A608022D20511605A680F
:10C01000002AFCD00622284B284C9A56284B002692
:10C02000E2500722043BE2500833E650254A264BF3
:10C030002800E250E979FFF7B9FF01220821234BDC
:10C040002348E6500433E250224B234FE15004339F
:10C05000E05002232148235021482750214F043823
:10C0600027501827204827506F6920482750C120A3
:10C07000800021501E498538FF380B500B6080210D
:10C08000890060580E33034363501A4B5E60626050
:10C090005A68002AFCD0002601271E612800A760EC
:10C0A000FDF716FF3000AB791F43AF71F8BD1248A2
:10C0B000FCE7C046FC0000409192020000100040E6
:10C0C0000C050000746962751C0500002C05000059
:10C0D0002300040214050000FFFF000034050000E7
:10C0E0003C0500002110010054050000040500007B
:10C0F00000E100E0FC10004016FCFFFF03000069B7
:10C10000002809D00221054AD167826A1A611A7A89
:10C11000013A1A72024B19607047C04604E100E010
:10C1200000E100E070B505000C0008F0F8FA002806
:10C130003AD1002C3AD02378262B37D8022201217D
:10C140001B4BDA671B4A1C4B586111615969002966
:10C15000FCD00020194954505860013010605868D4
:10C160000028FCD000201861013090601869002878
:10C17000FCD0686950500021596101311161596941
:10C180000029FCD000215960013151605968002913
:10C19000FCD0002018610123C02193600222084BCB
:10C1A00049005A501A6070BD0648FCE70648FAE795
:10C1B00004E100E000100040FC1000400405000015
:10C1C00000E100E016FCFFFF17FCFFFF37B54C68ED
:10C1D0000500002C04D10C4908F090FD28003EBD5C
:10C1E000A36A01A84B602278E36A033A211D08F094
:10C1F000B1FD20000BF052FD280001A908F07EFDE2
:10C2000001A808F074FDE9E73825002010B5040006
:10C210008CB0002911D0262A0FD86846D31C037091
:10C2200001234370FF33438001A807F05BF86946A0
:10C230002068FFF777FF0CB010BD0148FBE7C04650
:10C2400017FCFFFF10B5002903DB024B19600BF050
:10C250009AFA10BD4825002070B504001D0004ABFB
:10C260001E7804F0B5FF20000E4B40302360FEF72F
:10C270004FF92300220001354C331D700023E121CA
:10C280005832013616700A3AA364636513805380EE
:10C290009381D381013B200063644902FFF7D2FF01
:10C2A000200070BDF87F0200F7B580277F053E694A
:10C2B0007C690822113C744305002100684607F0A0
:10C2C00011F8104B009A9A4219D000930023019361
:10C2D000796928001339714309F083FD019A280018
:10C2E000009909F096FD2100280009F07AFD79698E
:10C2F0002200133928007143B30809F07CFD01982E
:10C30000FEBDC046FECA0000F0B50D00ABB0002176
:10C310000D920700302212A81E0007F08BF82800AB
:10C3200007F0F2FA431C0C93102B00D9B8E0202E32
:10C3300000D9B5E02900380009F098FD0B900028DD
:10C3400054D129000C9A12A806F0CCFF32000D99A6
:10C3500016A806F0C7FF80235B051A695D690B927A
:10C36000113D6A4338005E690D92FFF79DFF0D9BFA
:10C3700030220833002104001EA80F9307F05AF85A
:10C3800031000B9B13395943380009F02AFD002373
:10C390000F9E0C930E930C9BA34246DA3100302281
:10C3A0001EA806F09FFF12A91EA807F069FA002830
:10C3B0002BD13D49380022001091119409F029FD3C
:10C3C0006A46099615AB23CB23C223CB23C223CBCA
:10C3D00023C23800149B1299139A09F028FD0123F7
:10C3E0000E930C9B303601330C93D4E70B9832003C
:10C3F0000D99103006F052FF04000B980BF04EFC24
:10C40000002C9ED120002BB0F0BD6A46099621ABCE
:10C4100023CB23C223CB23C223CB23C238001E99B4
:10C420001F9A209B09F003FDDBE7E6433021F61756
:10C4300026404E430F9B9E190E9B002B1CD10B9B3D
:10C44000981E05F095FCA0422CD017490134380005
:10C4500022001091119409F0DCFC6A46099615AB94
:10C4600023CB23C223CB23C223CB23C23800129970
:10C47000139A149B09F0DBFC38000D9909F0B1FC0C
:10C4800080235B0559690C230B9A133963434A4394
:10C490003800110002330D9A09F0ADFC0024B1E719
:10C4A000024CAFE7024CADE7FECA000017FCFFFFED
:10C4B00013FCFFFF8023F0B55B051A6995B002926B
:10C4C0005A6905910299113A51435C69029B133CE8
:10C4D00005005C430391FFF7E7FE061E3CD03022C7
:10C4E0000021083408A8039F06F0A4FF21002800BB
:10C4F00009F077FC0023083701930493019BB342B2
:10C5000020DA3900302208A806F0ECFE059908A8C8
:10C5100007F0B6F900280DD11B49721E28000691BC
:10C52000079209F076FC01230493019B3037013315
:10C530000193E3E722000C233900280009F05BFC9B
:10C540003034F2E7049B002B08D10F493200280059
:10C550000691079609F05DFC0C4812E0280003994B
:10C5600009F03FFC80235B0559690C23029A1339BB
:10C570004A43734311002800039A023309F03BFC3D
:10C58000002015B0F0BDC046FECA00000CFCFFFF45
:10C5900070B50400A280FA22002308000C49920022
:10C5A00008312160A3710B496061E260A36063827E
:10C5B00009F05CFC051E09D00100200002221031A8
:10C5C000123006F08FFE28000BF068FB200070BDD3
:10C5D00074810200FF90020030B5022583790400C7
:10C5E00087B02B4204D1FDF773FCA3791D43A571DD
:10C5F000200009F081FC00281CD06B46DD1C2800BF
:10C6000009F071FC2B78002B17D001A809F069FC08
:10C610000321019AD3170B409B189B102382FDF72F
:10C62000C9FEE368A18818180123A0601A0002A8B7
:10C6300008F076FA002007B030BD0122064B1A60E0
:10C64000064A51680029FCD000215160044A126852
:10C65000019201225A60DBE700C00040FCC00040AC
:10C6600008C50040022802D10122014B1A70704710
:10C67000CF29002070B5064D04002B78002B04D183
:10C68000044802F0AFFE01232B70200070BDC046AD
:10C69000D029002065C6010070B50C0008F03FF8F5
:10C6A000002810D00023134DA40A2B70200009F09D
:10C6B00037FC002803D00A200BF0CCF9F6E72B78E2
:10C6C000002BFCD070BD02210B4B0C4A99508021ED
:10C6D000C90058580028FCD0A120C0001C50585850
:10C6E0000028FCD0002199508021C9005A58002A06
:10C6F000FCD0E7E7CF29002000E00140040500005E
:10C70000F8B50D0016001F0008F009F8002811D038
:10C710000023184C23703A003100280009F0FEFB7A
:10C72000002803D00A200BF095F9F4E72378002BBA
:10C73000FCD0F8BD012380220F4C1049D200635079
:10C74000A358002BFCD08022D200002394469F42A5
:10C7500008DD980032582A506246A0580028FBD0C5
:10C760000133F4E7002363506346E358002BFBD00A
:10C77000DFE7C046CF29002000E0014004050000AB
:10C7800008B4024B9C46443808BC6047255F020051
:10C79000FA21F8B50389C90004005943324809F069
:10C7A000C2FEFA21890005F0E3FA304FA17A208118
:10C7B000380009F0B8FE23002600250022894C33FA
:10C7C000A072A0361A808C3500232A22317828687E
:10C7D00008F0D3FF002844D11F235B22317828685A
:10C7E00008F0CBFF00283CD120235C223178286858
:10C7F00008F0C3FF002834D101232C2231782868A7
:10C8000008F0BBFF00282CD101232D2231782868A5
:10C8100008F0B3FF002824D101232E2231782868A4
:10C8200008F0ABFF00281CD1A17A380009F076FE91
:10C830000E22C3B23178286808F09FFF002810D17B
:10C84000FA21238989005943074809F067FE01232B
:10C8500003432A2231782868DBB208F08EFF0028D3
:10C8600000D00348F8BDC046948102008C810200CC
:10C870000EFCFFFF08B4024B9C46443808BC6047DE
:10C8800091C70100074B10B51A00040008323C3371
:10C8900002604364443008F077FB200008F0A7FAF8
:10C8A000200010BDF481020008B4024B9C464438BD
:10C8B00008BC604785C8010008B4024B9C46443858
:10C8C00008BC60472F5F0200F0B50425837904009F
:10C8D0008BB02B4204D1FDF7FBFAA3791D43A57160
:10C8E00020009030FFF77EFA0026B0420FD12300DF
:10C8F000A033197820000C2307AD00938C302B0057
:10C9000001220068FEF7E4FF061E03D02C4E300023
:10C910000BB0F0BD0A2304AA9B182A785A706A78D3
:10C920001A700022985EAA785A70EA781A7000226B
:10C93000995E03912A795A706A791A7000229F5E73
:10C94000AA795A70EA791A7000215A5E04922A7AFA
:10C950005A706A7A1A7000215A5E0592AA7A5A7041
:10C96000EA7A1F251A7000229B5EA27A03999C46E0
:10C97000514349425043CB172B405B185B11A361D5
:10C98000C3172B40181864235743FA171540ED19A5
:10C990006A112262059A5B425343A367642361468E
:10C9A000049A40115A434B43E267221DE061200084
:10C9B000D36708F08EFA2000443008F0ECFAA6E7BE
:10C9C0000EFCFFFF08B4024B9C46443808BC60478D
:10C9D000C9C80100F7B51E00040008AB1B8815008C
:10C9E000019309AB1A8800910AAB31001F88FDF74B
:10C9F0003FFF20003A0031004430FEF793F9134B1B
:10CA000020001A003C336364230008322260009A3D
:10CA10008C331A60AB8890308380AB7983710C4B78
:10CA2000AA6803600E23EB5682602200A9899C321B
:10CA3000118083732300019AA03303211A80FFF72A
:10CA400009FA2000FFF7A4FE2000FEBDF4810200D9
:10CA500048800200F8B5FA260189B6000400714347
:10CA6000254809F060FD310005F082F9234FA17AD5
:10CA70002081380009F057FD2500A07258350023A9
:10CA80002A222978606C08F078FE002832D1102321
:10CA90002B222978606C08F070FE00282AD101232F
:10CAA0002D222978606C08F068FE002822D101232D
:10CAB0002E222978606C08F060FE00281AD1A17A35
:10CAC000380009F02BFD0E22C3B22978606C08F003
:10CAD00054FE00280ED121890748714309F01EFD3C
:10CAE000012303432A222978606CDBB208F045FE5B
:10CAF000002800D00248F8BD5C8202005482020087
:10CB00000EFCFFFF10B50400034B0833036008F070
:10CB10006EF9200010BDC046BC8202007FB504251E
:10CB2000837904002B4204D1FDF7D2F9A3791D4388
:10CB3000A57120004830FFF755F90025A8420DD116
:10CB4000230058331978062302AE009301223300E4
:10CB5000606CFEF7BDFE051E03D00D4D280004B02D
:10CB600070BD002104200222A37A30567156B256BD
:10CB700059435A434343DB002362D20023685242A5
:10CB8000C90020009B6AA261E1619847E6E7C046C0
:10CB90000EFCFFFFF8B504000F00190006AB1E885D
:10CBA00007AB15001A88FDF763FE0F4B6764083367
:10CBB00023602300AA8848339A80AA799A710B4A85
:10CBC000A968A2640E22AA5621652100A8895431C1
:10CBD00008809A730023A371230058331E8020001D
:10CBE000FFF738FF2000F8BDBC8202004880020039
:10CBF00010B50400034B0833036008F0C5F92000AA
:10CC000010BDC04650830200F0B507005C3700231A
:10CC1000040010223978806C87B008F0AEFD214DF9
:10CC200003002800002B3BD10F2602ABF61801238E
:10CC3000397808220093A06C3300FEF749FEA84221
:10CC40002DD003223378134203D06420FDF7DEF9A0
:10CC5000EAE7FA262189144DB6007143280009F04D
:10CC600062FC310005F084F82081A023112239787C
:10CC7000A06C08F082FD002811D1A36C21890393D8
:10CC8000714328003F7809F049FC01231843C3B2DF
:10CC900010223900039808F070FD002800D00148E8
:10CCA00007B0F0BD0EFCFFFFF082020070B5082552
:10CCB0008379040086B02B4204D1FDF709F9A379EA
:10CCC0001D43A57120004C30FFF78CF8051E0DD0D8
:10CCD00023005C331978062304AE0093012233004D
:10CCE000A06CFEF7F5FD051E03D0134D280006B01D
:10CCF00070BD0E2332786B445A70727820001A701F
:10CD00000022995E64224A43A263B2785A70F27894
:10CD10001A700022995E6422524251436163317954
:10CD200059707179197000215B5E5A432368E26380
:10CD30001B6A9847DAE7C0460EFCFFFFF8B504000F
:10CD40000F00190006AB1E8807AB15001A88FDF707
:10CD5000E9FF0D4BA764083323602300AA884C33F6
:10CD60009A80AA799A71094AA968E2640E22AA56A1
:10CD700061652100A889583108801E8220009A73BD
:10CD8000FFF742FF2000F8BD5083020048800200F8
:10CD9000F0B5FA250189234FAD0085B00400694341
:10CDA000380009F0C0FB290004F0E2FF1E4EA17A12
:10CDB0002081300009F0B7FB636CA072029323005E
:10CDC0005833218901931B7869433800039309F094
:10CDD000A5FB07230343202203990298DBB208F046
:10CDE000CCFC00281AD1019B22221978606C1023F8
:10CDF00008F0C3FC002811D1019BA17A30001F78F4
:10CE0000656C09F08BFB80235B42034323223900CE
:10CE10002800DBB208F0B1FC002800D0034805B0C0
:10CE2000F0BDC046848302007C8302000EFCFFFF3D
:10CE300010B50400034B0833036007F0D8FF20004F
:10CE400010BDC046F4830200F0B5042583790400C8
:10CE500085B02B4204D1FDF73BF8A3791D43A571A2
:10CE600020004830FEF7BEFF051E0DD023005833CA
:10CE70001978062302AE0093A8223300606CFEF7F7
:10CE800027FD051E03D0144D280005B0F0BD1F205E
:10CE90000023F25ED31703409B180222B15E5B11A0
:10CEA000CA17024052180421775E3380F9170140F7
:10CEB000A07A52114343C919728049114243B1808B
:10CEC00041435B42E3612368524220009B6AA261B6
:10CED00021629847D8E7C0460EFCFFFFF8B5040072
:10CEE0000F00190006AB1E8807AB15001A88FDF766
:10CEF000BFFC0F4B6764083323602300AA884833C4
:10CF00009A80AA799A710B4AA968A2640E22AA563D
:10CF100021652100A889543108809A730023A371E8
:10CF2000230058331E802000FFF732FF2000F8BD99
:10CF3000F483020048800200F7B5FA250400018955
:10CF4000134EAD006943300009F0EDFA290004F0FA
:10CF50000FFF2700A36C208100935C373B7881B2E0
:10CF600069433000019309F0D9FA6022C3B20199F4
:10CF7000009808F002FC002807D1012362223978CA
:10CF8000A06C08F0FAFB002800D00248FEBDC046A5
:10CF9000288402000EFCFFFF10B50400034B083389
:10CFA000036007F0F1FF200010BDC046508402006E
:10CFB0007FB50825837904002B4204D1FCF788FF54
:10CFC000A3791D43A57120004C30FEF70BFF051E11
:10CFD0000DD023005C331978062302AE0093E822BB
:10CFE0003300A06CFEF774FC051E03D00B4D280027
:10CFF00004B070BD0223F25E96235B425A43626323
:10D000000021725E20005343A3630423F25E962343
:10D010005343E36323681B6A9847E8E70EFCFFFF6E
:10D02000F8B504000F00190006AB1E8807AB150009
:10D030001A88FDF777FE0D4BA764083323602300A1
:10D04000AA884C339A80AA799A71094AA968E2643D
:10D050000E22AA5661652100A889583108801E82D7
:10D0600020009A73FFF768FF2000F8BD508402008B
:10D070004880020010B50400054B083303601C30E3
:10D0800007F0B5FC2000183007F0B1FC200010BDFF
:10D090007C840200FF23F0B52C4E8DB0337000234A
:10D0A000040069460088009303F088F9002802D143
:10D0B0006B469B783370264D2B68DB68002B07D1BD
:10D0C000002320881A00190008F0A1FF0DB0F0BD60
:10D0D0003378032BF4D81F4901A8FDF7AFF92B686B
:10D0E00001A9DD6804A807F0D7FC280004A908F00E
:10D0F000ECFE0027050004A807F079FCBD421ED015
:10D1000029002022103104A806F0ECF828000AF0CB
:10D11000C5FD317804ABC9005918082202A806F0F1
:10D12000E1F801230822208802A908F070FF0137E6
:10D13000002804D10C212088074A08F066FF01A8C6
:10D1400007F055FC002FBBD0C0E7C046942000205C
:10D150005825002007910200FFFF0000F0B58379F9
:10D16000040091B05B071BD5FDF724F90023226969
:10D17000801A9941994203D1F533FF3398420FD376
:10D18000A068002808D0354B1D8801F0FFF803681F
:10D19000152229001B6A98470422A3799343A3719F
:10D1A000A3799B0758D52E4E3368DB68002B4FD0F0
:10D1B0002C4F3B78032B4BD8284B2B491B8804A8BA
:10D1C0000193FDF73BF9336804A9DD6808A807F06F
:10D1D00063FC08A9280008F078FE050008A807F0FD
:10D1E00006FC082302AAD3800198073B063206A951
:10D1F00008F00FFF002D08D029002022103108A8C8
:10D2000006F070F828000AF049FD3D7802ABDA8894
:10D21000ED0008AB5D19280006A906F03FF80028CC
:10D2200013D00822280006A906F05CF8336804A988
:10D23000DD6805A807F030FC2023280008AA05A90E
:10D2400008F049FE05A807F0D2FB04A807F0CFFBC1
:10D250000222A3799343A37111B0F0BD7829002075
:10D26000582500209420002007910200F0B504000A
:10D27000150085B001930AAB1F880BAB1B78461CC9
:10D2800002930EAB1B78102203930B7803704B8A2A
:10D2900001314382300006F025F865610025012246
:10D2A000019B27836383039BE5832377029B2000F5
:10D2B000F377A31CDA770C9B0C26636223000D9A8C
:10D2C000283329001A705D7032009D702C3006F0F2
:10D2D000B1F82000064B3200A3632900E56340301B
:10D2E00006F0A8F82000034B2565E36405B0F0BD07
:10D2F000296002001B60020070B50D0001F046F8C5
:10D3000004000368002D09D15B699847FA2080006A
:10D310006843074904F02CFDE08070BD9B68984786
:10D320008542F3D2236820009B6898470500EDE70B
:10D3300071020000F0B507001500A1B002C7060099
:10D340006B4918A81C0008F067FF2B1E03D02800AB
:10D3500006F0DAFA83B201220492002203920292CA
:10D360000232019200932A0018A93800FFF77EFFCD
:10D3700033006049583318A8079308F04DFF231E67
:10D3800003D0200006F0C0FA83B2012204920022EA
:10D3900003920292023201920093220018A9079888
:10D3A000FFF764FF33005449AC3318A8089308F022
:10D3B00033FF269B002B03D0180006F0A5FA83B29A
:10D3C00001220492002203920292023201920093FF
:10D3D000269A18A90898FFF749FF731CFF3347499D
:10D3E00018A8099308F018FF279B002B03D01800FA
:10D3F00006F08AFA83B2012204920022701C039282
:10D400000292023201920093279A18A9FF30FFF787
:10D410002DFF33005533FF33394918A8099308F01D
:10D42000FBFE289B002B03D0180006F06DFA83B298
:10D43000012204920022039202920232019200938E
:10D44000289A18A90998FFF711FF3300A933FF3371
:10D450002C4918A80A9308F0DFFE299B002B03D063
:10D46000180006F051FA83B201220492002218AC8F
:10D47000039202920232019200932100299A0A98A3
:10D48000FFF7F4FE204B1B780B93002B2DD1079B4D
:10D490001E491393089B0DA81493731CFF33159317
:10D4A000099B129716930A9B12AD179308F0B4FECE
:10D4B0001D21492006AB1B7F1022237006ABDB8D9C
:10D4C000638206ABC918C01805F00CFF062323754C
:10D4D0000B9B1E953068A38300F068FF0368210052
:10D4E0001B6898470122084B1A70300021B0F0BD2C
:10D4F000292A0000242A0000252A0000272A0000EB
:10D50000262A0000282A0000D12900200A1800003D
:10D5100070B5002504000B4B8580083385710360CE
:10D52000C1601830FCF7F4FF20001C30FCF7F0FF5E
:10D530000123621CD377044A2000A5606561146052
:10D54000A37170BD7C84020058250020FA2130B5FB
:10D5500085B00400012302226846890007F0E0FA42
:10D56000074D2868002809D008F062FE2188054B85
:10D570002A681980022391790B43937105B030BD5D
:10D58000582500207829002010B50C0007290FD855
:10D59000806800F0FBFE074B195703685B6C9847E7
:10D5A00043425841044B40421840044BC01810BD40
:10D5B0000348FCE791920200EA03000016FCFFFF1B
:10D5C00017FCFFFFF0B5A04C0D00A5440400079325
:10D5D0009AAB1B789D4909A804930692FCF72EFF8D
:10D5E000200029001C3007F05FFAC020800001F005
:10D5F000EFFE08200AF056FB060000210EAF09F0EE
:10D600000AF815AD0C220021A660380005F012FFC3
:10D610002B0007CF07C38E4B2900EB60002330009F
:10D620002B6108F0E1FFA06800F0B0FE08220021A5
:10D63000059016A805F0FEFE14200AF033FB854B7A
:10D640002A0015930300C2CAC2C3834B059EC36060
:10D650000023A03603617368002B00D0EEE07060F9
:10D66000A06800F0A3FE08220021060016A805F01D
:10D67000E1FE14200AF016FB784B1593030086CDCB
:10D6800086C3774BC36000230361336B002B00D04C
:10D69000D6E03063A06800F079FE082200210590F2
:10D6A00016A805F0C7FE14200AF0FCFA6D4B15AD64
:10D6B00015932A000300C2CAC2C36B4B059EC36008
:10D6C0000023943603617368002B00D0BAE07060C9
:10D6D000012604AB1B7C04AA334308A93000137451
:10D6E00008F099FCA06800F071FE03685F495B6A6E
:10D6F0009847A06800F06AFE03685D499B699847F7
:10D70000A06800F063FE0023026800931768049984
:10D710003200B847049B002B0AD0200008F091FD8E
:10D72000032805DDA06800F051FE0368DB68984718
:10D7300000260EAFB819073608F0BFFC1C2EF8D132
:10D74000183E04ABA0685E770A9700F03FFE0368BE
:10D750000AA91B699847A06800F018FE03680AA987
:10D760005B6D9847A06800F011FE03680021DB6D37
:10D770009847A06800F00AFE036802219B6D984755
:10D7800000212000FFF700FF18200AF08BFAA168A3
:10D7900000F054FA374B384A1B68A1680393374BA3
:10D7A00028001B6800250293354B1B680193069BDC
:10D7B0001B689B190093334B12681B68FFF7BAFD77
:10D7C00030200AF06FFA079AA16800F0F9FAA06811
:10D7D00000F0DCFD03680CA99B6A9847082304AAA3
:10D7E0001384A068DB185384958400F0CFFD036890
:10D7F0000CA9DB6A98473100A06808F0E0FC099AA0
:10D8000009219378A068921908F0ECFCA06800F058
:10D81000BDFD32210571A068FFF76EFD04AB1B7FD3
:10D82000AB4204D0A06800F0B1FD08F03CFC09A8B0
:10D8300007F0DDF895239B009D44F0BD03610EE7E2
:10D84000036126E7036142E7ACFDFFFF139102008D
:10D85000376002004DD501004560020095D00100FF
:10D8600053600200816002006160020089D80100FB
:10D87000BDD8010054250020502500200C20002098
:10D880004C2500201020002013B506226846FCF726
:10D8900015FE094B1C68002C0AD0694601A807F048
:10D8A000FBF8200001A908F0E6FC01A807F09FF8AA
:10D8B000684607F09CF813BD58250020002373B577
:10D8C00001AE0C0031000500019302F077FD002845
:10D8D00002D1B278064B1A70064B1868002806D0A1
:10D8E000054B1D8063425C41E1B208F0CCFC73BD86
:10D8F00094200020582500207829002030B5284C9D
:10D90000A9B06A220D000DA8210005F0EBFC0DA9BD
:10D9100003A8FCF731FE03A906A807F031F901239B
:10D920000193013BFF3B00930533FF33642206A9BB
:10D930002800FDF773FF06A807F015F9210019224A
:10D940006A3106A805F0CEFC05220024110006ABC2
:10D9500004A807F03CF904A905A807F011F9230071
:10D96000220028000194009405A9FDF799FE05A85E
:10D9700007F0F9F821002800FDF780FF05340520A5
:10D98000FCF744FBFF2CF5D1FA208000FCF73EFBAE
:10D9900004A807F0E8F803A807F0E5F829B030BDBF
:10D9A0000E920200F0B59C4B95B005921A680823C0
:10D9B00004000F00D16C06A80B43D3649749FCF711
:10D9C0003DFD974907A8FCF739FD220000250DAE63
:10D9D00030001C3206A907F076F8310007AA08A823
:10D9E00007F071F8300007F002F8631CDD77A068DB
:10D9F00000F0CCFC03685B6998477019073508F0A4
:10DA00005CFB1C2DF9D180230BADDB00AB80A06843
:10DA10000B9600F0BBFC036829005B6D9847A0687B
:10DA200000F0B4FC036800219B6D9847A06800F0EB
:10DA3000ADFC0300002506000A331F220021180058
:10DA4000039305F0F7FC039B3000DD7708F022FB21
:10DA50000621A06808F0B3FB089A09219378A06812
:10DA6000043208F0BFFBA06800F090FCC8210571EB
:10DA7000A068FFF741FCA06800F088FC0581A06861
:10DA800000F084FC08F00FFB3800FDF79BFD200040
:10DA9000FCF71EFA39002000FFF730FF39002000A4
:10DAA00008F004FCFF230495039362690123160028
:10DAB0001E401A4232D05B4909A8FCF7D7FD09A9DC
:10DAC0000AA807F05DF800220AA91300019200924B
:10DAD0003800FDF7E5FD0AA807F045F8049B002B88
